:020000040800F2
:10000000884200200D1A0008990100089B01000891
:100010009F010008A3010008A701000800000000DC
:10002000000000000000000000000000AB0100081C
:10003000AD01000800000000AF010008B101000898
:10004000271A0008271A0008271A0008271A00088C
:10005000271A0008271A0008271A0008271A00087C
:10006000271A0008271A0008271A0008271A00086C
:10007000271A0008271A0008271A0008271A00085C
:10008000271A0008271A0008271A0008271A00084C
:10009000B3010008271A0008271A0008271A0008C9
:1000A000271A0008271A0008271A0008271A00082C
:1000B000354800087917000855170008271A000866
:1000C000271A0008271A0008271A0008271A00080C
:1000D000271A000881190008271A0008271A0008A3
:1000E000271A0008271A0008271A0008271A0008EC
:1000F000271A0008271A0008271A0008271A0008DC
:10010000271A0008271A000869480008271A00085B
:10011000271A0008271A0008D9480008271A0008DB
:10012000271A0008271A0008271A0008271A0008AB
:10013000DFF80CD008F084FE0048004745010008B5
:1001400088420020124C2646002500F0C2F903F038
:100150003AFF1CE0022005F029FE202817D1204696
:1001600003F001FF98B9204603F0FBFD051E0ADAF3
:10017000084808F053FA471C2B463A460549212007
:1001800003F0CBFD03E02946304604F0B7FAE1E77F
:1001900084030020209F0008704700BFFEE700BFD7
:1001A000FEE700BFFEE700BFFEE7704770477047FD
:1001B000704710B506F09CF910BD10B5002006F090
:1001C0007AFB10BD0CB50020019000906C480068CF
:1001D00040F480306A49086000BF6948006800F454
:1001E000003000900198401C0190009818B90198C7
:1001F000B0F5A06FF1D16248006800F4003010B192
:100200000120009001E0002000900098012843D1D7
:100210005C48006840F010005A49086008460068D1
:1002200020F0030008600846006840F00200086003
:10023000534840685249486008464068486008464C
:10024000406840F4806048600846406820F47C10B4
:1002500048600846406840F4E81048600846006876
:1002600040F08070086000BF4548006800F00070F2
:100270000028F9D04248406820F003004049486017
:100280000846406840F00200486000BF3C484068B3
:1002900000F00C000828F9D10CBD10B5FFF792FF53
:1002A00010BD10B53648006840F0010034490860C0
:1002B00008464068344908403149486008460068AB
:1002C000324908402E4908600846006820F4802022
:1002D00008600846406820F4FE0048604FF41F00A4
:1002E0008860FFF7DAFF4FF000602949086010BD11
:1002F00010B5002100200022214B5B6803F00C01A7
:1003000021B1042906D0082928D107E0214B224C2D
:10031000236027E01F4B204C236023E0184B5B68D1
:1003200003F47010164B5B6803F48032022303EB76
:10033000904022B9194B4343174C23600DE0104BFA
:100340005B6803F4003323B1144B4343124C236026
:1003500003E0104B4343104C236003E00D4B0E4C65
:10036000236000BF00BF064B5B68C3F303130C4C54
:10037000E15C094B1B68CB40074C236010BD0000BB
:1003800000100240002002400000FFF8FFFFF6FED0
:1003900008ED00E000127A002800002000093D006E
:1003A0002C000020704708B501F05EFD4FF480304E
:1003B00001F07AFD01F0B7FD764908700846007833
:1003C000012827D1102002F0FFF9022002F0E8F9FD
:1003D000002001F0EEFD002001F0FDFD4FF48060F3
:1003E00001F0F0FD4FF4E0114FF4803001F0C4FD56
:1003F000012001F0CDFD00BF392001F078FD00287B
:10040000FAD0022001F0C7FD00BF01F0CDFD0828A1
:10041000FBD101E000BFFEE70121080701F09FFECC
:10042000FFF7C0FF0121082001F08CFE4FF480404F
:10043000ADF8000002208DF8020010208DF80300B6
:100440006946554801F0C2FB0121102001F07AFEF7
:1004500049F20300ADF8000003208DF802001020DF
:100460008DF8030069464D4801F0B0FB08BD10B59A
:10047000002001F0C7FD0121C80501F070FE10BD8C
:1004800008B54FF4407001F0D3FA14208DF8000045
:1004900001208DF8010000208DF8020001208DF868
:1004A0000300684601F0C9FA08BD08B50121102013
:1004B00001F048FE4FF44C60ADF8000010208DF8BC
:1004C000030003208DF802006946344801F07EFBEA
:1004D00008BD10B500214FF0006001F0E0FAFFF711
:1004E00062FF00F09BFDFFF7C2FF05F0CDF9FFF7BB
:1004F000C7FF00F0A1FDFFF7D8FF01F07DF900F084
:100500009CFF10BD70477047704730B50B46002107
:1005100000BF16E00A24B4EB107F05D9302404EBA9
:10052000107403F8114005E0412404EB10740A3CF8
:1005300003F81140000100254C00641C1D554C1CA3
:10054000E1B29142E6DB30BD70B515480468001D8C
:100550000568001D0668344454B10822114920463C
:10056000FFF7D3FF04220F4910312846FFF7CDFFD4
:1005700070BD10B504462CB14FF48041064801F01F
:10058000D4FB04E04FF48041034801F0CCFB10BDE4
:10059000704770473C000020000C014000100140F3
:1005A000E8F7FF1F4A02002008B50121042001F0EE
:1005B000C9FD4FF44060ADF8000010208DF8030035
:1005C00003208DF802006946974801F0FFFA4FF4C6
:1005D0004061954801F0A7FB08BD10B59248001D89
:1005E000006820F470409049091D086008460068C2
:1005F00040F44050086001208C4908608C49C1F8E3
:10060000A801042001F011F90020884908600420A5
:1006100001F00BF900208649C1F8A80110BD10B502
:100620008148001D006820F470407F49091D086062
:100630000846006840F44050086000207B49091FCC
:1006400008607B49C1F8AC01042001F0EEF80120FC
:100650007649091F08607649C1F8AC01042001F011
:10066000E4F810BD10B500246F48001D006820F4A8
:1006700070406D49091D08600846006840F400405C
:10068000086001206949086001F0CFF8012068493D
:10069000C1F8A80101F0C9F807E0601CC4B2FA2C47
:1006A00003DDFFF7BCFF012010BD60488038006803
:1006B0000028F2D15D49091F086000BFF4E710B5BA
:1006C00000205A49091F08605748001D006820F49F
:1006D00070405549091D08600846006840F44050C4
:1006E000086000205249C1F8AC01022001F09DF8D9
:1006F00001204E49091F0860022001F096F80020F1
:100700004B49C1F8A80110BD10B500204749091F89
:1007100008604548001D006820F470404249091DEA
:1007200008600846006840F44050086001204049D5
:10073000C1F8AC01022001F078F801203B49091F03
:100740000860022001F071F800203949C1F8A801C1
:1007500010BD70B504463448001D006820F4704098
:100760003149091D08600846006840F4405008609F
:1007700000202E49091F086000251DE0E00918B17E
:1007800001202A49086002E000202849086060062C
:10079000040E022001F049F801202449091F0860D5
:1007A000022001F042F800202149C1F8A8010220EE
:1007B00001F03BF8681CC5B2082DDFDB70BD70B5D9
:1007C000054600241848001D006820F470401649B2
:1007D000091D08600846006840F4004008600026D3
:1007E00017E000201149091F0860022001F01DF8E0
:1007F00001200F49C1F8A8016006040E0B4880389B
:10080000006808B1601CC4B2012001F00EF8701C31
:10081000C6B2082EE5DB15B9FFF776FF01E0FFF75A
:100820004EFF204670BD0000000C0140AC8121420B
:100830000080214210B500240020FE4948670021B5
:10084000FC488167FC49C167FC48FA49C1F880004F
:100850000021F848C0F88410F949C0F88810F94818
:10086000F4494860F848C1F88C00C1F89000F74A94
:10087000F749F04806F07AF8204610BD0FB42DE98C
:10088000F84F00200090BDF9280008F02CF98246AE
:100890000022F04B08F038F806464FF02042EE4BAD
:1008A00008F032F880460022EC4B08F09FF804462E
:1008B00008F06AF9DF498860BDF9360008F013F9DD
:1008C00080464FF03332E64B08F01EF80646002211
:1008D000E24B08F08BF8044608F056F9D549086257
:1008E000BDF9300008F0FFF882464FF06632DD4B6C
:1008F00008F07CF806460022DB4B08F005F80446B9
:100900000022DA4B08F072F8804608F03DF9C94938
:100910004861BDF92A10484208F0E5F80646002271
:10092000CC4B07F0F1FF80464FF02042CA4B07F056
:10093000EBFF82460022C94B08F058F8044608F045
:1009400023F9BC49C860BDF93810484208F0CBF81B
:1009500080464FF03332C24B07F0D6FF06460022E6
:10096000BE4B08F043F8044608F00EF9B14948625E
:10097000BDF93210484208F0B6F806464FF066322C
:10098000B84B08F033F880460022B74B07F0BCFFA5
:1009900004460022B54B08F029F8824608F0F4F826
:1009A000A4498861BDF92C10484208F09CF806461D
:1009B0000022A84B07F0A8FF80464FF02042A64B2C
:1009C00007F0A2FF04460022A44B08F00FF882466D
:1009D00008F0DAF897490861BDF93A10484208F082
:1009E00082F806464FF033329D4B07F08DFF80466C
:1009F00000229A4B07F0FAFF044608F0C5F88D492B
:100A00008862BDF93410484208F06DF806464FF090
:100A10006632944B07F0EAFF80460022924B07F0C3
:100A200073FF04460022914B07F0E0FF824608F076
:100A3000ABF88049C861854A85497E4806F0A4F82C
:100A40000C228349602003F02BF90098BDE8F80FD1
:100A50005DF814FB70B506460C461546FFF7BDFD64
:100A60003046FFF776FEFFF7FDFD2046FFF771FEEB
:100A7000FFF7F8FD2846FFF76CFEFFF7F3FDFFF7E1
:100A8000CEFD70BD70B504460D46FFF7A6FD2046AD
:100A9000FFF75FFEFFF7E6FD06462846FFF759FE23
:100AA000FFF7E0FD0646FFF798FD611CC8B2FFF7AF
:100AB00050FEFFF7D7FD06460020FFF780FE0646F2
:100AC000FFF7ADFD304670BD10B500226B21D02080
:100AD000FFF7C0FF06221A21D020FFF7BBFF182224
:100AE0001B21D020FFF7B6FF00221C21D020FFF7EA
:100AF000B1FF02223721D020FFF7ACFF00226A218C
:100B0000D020FFF7A7FF10220A211820FFF7A2FF2D
:100B1000322000F0AEFE11220A211820FFF79AFFC2
:100B200010BD2DE9F0438DB000260027B04600250A
:100B300066E0FFF752FDD020FFF70BFEFFF792FDB6
:100B40003B20FFF706FEFFF78DFDFFF746FDD120A6
:100B5000FFF7FFFDFFF786FD002410E00D2C06D106
:100B60000020FFF72CFE01A921F8140005E0012068
:100B7000FFF725FE01A921F81400601C84B20E2C99
:100B8000ECDBFFF74CFDBDF81600BDF8141000EBD0
:100B9000012000B2ADF82C00BDF81A00BDF8181005
:100BA00000EB012000B2ADF82E00BDF81E00BDF82C
:100BB0001C1000EB012000B2ADF83000BDF92C0094
:100BC00007F083FF8146314607F02FFD0646BDF949
:100BD0002E0007F07AFF8146394607F026FD0746CA
:100BE000BDF9300007F071FF8146414607F01DFD59
:100BF00080461F480088401C1D490880681C85B23B
:100C0000C82D96DB304607F07FFF00B218490988EF
:100C100090FBF1F000B217490880384607F074FFE6
:100C200000B21349098890FBF1F000B21249088024
:100C3000404623E038040020C3F51CC1A470BD3E2B
:100C4000000080BE0AD7A33CCA61B336DC04002092
:100C5000D00400200000103F9999234000408F40AD
:100C60003333E33F66663040FB2109400080664035
:100C70007E000020400000204200002007F044FFDA
:100C800000B2D049098890FBF1F000B2CE4908804B
:100C900000200DB0BDE8F0832DE9F0418AB0FFF7E8
:100CA0009CFCD020FFF755FDFFF7DCFC3B20FFF755
:100CB00050FDFFF7D7FCFFF790FCD120FFF749FD6F
:100CC000FFF7D0FC00240EE00D2C05D10020FFF72B
:100CD00076FD2DF8140004E00120FFF770FD2DF8DB
:100CE0001400601CC4B20E2CEEDBFFF798FCFFF77B
:100CF00074FC1820FFF72DFDFFF7B4FC0320FFF76D
:100D000028FDFFF7AFFCFFF768FC1920FFF721FD76
:100D1000FFF7A8FC0E240EE0132C05D10020FFF7EE
:100D20004EFD2DF8140004E00120FFF748FD2DF8DA
:100D30001400601CC4B2142CEEDBFFF770FC11220F
:100D40000A211820FFF786FEBDF80200BDF800104A
:100D500000EB012000B29D490880BDF80600BDF8F7
:100D6000041000EB012000B298494880BDF80A0049
:100D7000BDF8081000EB012000B294498880BDF84E
:100D80000E00BDF80C1000EB012000B28F49C880A6
:100D9000BDF81200BDF8101000EB012000B28B4925
:100DA0000881BDF81600BDF8141000EB012000B258
:100DB00086494881BDF81A00BDF8181000EB0120E3
:100DC00000B282498881BDF81C00BDF81E1000EBFE
:100DD000012000B27D49C881BDF82000BDF8221075
:100DE00000EB012000B279490882BDF82400BDF86B
:100DF000261000EB012000B274494882B1F90810B6
:100E0000734AB2F90020881A07F06DFE07460022E7
:100E1000704B07F079FD054607F0B6FE6E49086095
:100E20006A49B1F90A106D4AB2F90020881A07F030
:100E30005AFE07460022674B07F066FD054607F09D
:100E4000A3FE674908606149B1F90C105E4AB2F926
:100E50000020881A07F047FE074600225D4B07F086
:100E600053FD054607F090FE5E4908605A48006849
:100E700007F077FE05464FF066325B4B07F0B6FD94
:100E8000074607F081FE544908605548006807F09E
:100E900068FE05464FF06632534B07F0A7FD074644
:100EA00007F072FE4E4908604E48006807F059FE90
:100EB00005464FF066324C4B07F098FD074607F0A9
:100EC00063FE484908604149B1F9000007F0FDFDA3
:100ED000464908603D49B1F9020007F0F6FD444972
:100EE00008603A49B1F9040007F0EFFD4149086094
:100EF0003E48006807F035FE054600223E4B07F0ED
:100F000003FD074607F040FE38490860384800688E
:100F100007F027FE05460022374B07F0F5FC074691
:100F200007F032FE324908603248006807F019FEC7
:100F300005460022304B07F0E7FC074607F024FE89
:100F40002C4908602149B1F90E0007F0BEFD2B497C
:100F500008601E49B1F9100007F0B7FD2849086084
:100F60001A49B1F9120007F0B0FD2649086024487B
:100F70000068254908602148006824490860214824
:100F8000006880F000402249086022491E4800683D
:100F900007F09DFB1C4908601F491C48006807F0CA
:100FA00044FB1A4908601A480068194908600A2079
:100FB00000F05FFC14220549492002F071FE0AB0DE
:100FC000BDE8F0817E00002044000020E403002002
:100FD000400000200040AF3F5400002042000020AD
:100FE000580000205C00002066A64C40480000200D
:100FF0004C000020500000200000103F6000002046
:1010000064000020680000206C00002070000020B8
:1010100074000020000022430000964210B5012118
:10102000084601F08FF80121480701F098F80121E6
:10103000042001F094F810BD08B54FF4A06000F052
:10104000F7FC0D208DF8000000208DF801008DF8D0
:10105000020001208DF80300684600F0EEFC1C2021
:101060008DF8000001208DF8010000208DF80200AD
:1010700001208DF80300684600F0DFFC1D208DF88C
:10108000000001208DF801008DF802008DF80300AA
:10109000684600F0D2FC1E208DF8000001208DF87B
:1010A000010002208DF8020001208DF8030068463F
:1010B00000F0C3FC32208DF8000001208DF8010003
:1010C00003208DF8020001208DF80300684600F02F
:1010D000B4FC36208DF8000003208DF801008DF857
:1010E000020001208DF80300684600F0A6FC3720BE
:1010F0008DF8000002208DF8010000208DF802001C
:1011000001208DF80300684600F097FC08BD3EB54D
:1011100004460121082001F022F8CF4801F01EFE0C
:101120004FF4FA6090FBF4F080B2ADF8040048F69A
:101130009F40ADF800000020ADF80600ADF80200B9
:101140006946C54801F0DEFE0121C34802F0FCFCFF
:1011500001221146C04802F04CFA0121BE4802F0BB
:101160002DFA00203EBD0EB50121102000F0F7FF42
:10117000BA4801F0F3FD4FF47A60ADF8040008209E
:10118000ADF800000020ADF80600ADF80200694699
:10119000B24801F0B7FE0121B04802F0D5FC0122AF
:1011A0001146AE4802F025FA0121AC4802F006FAD9
:1011B00000200EBD00B589B00121042000F0CFFF52
:1011C0000121082000F0BEFF08A800F08AFDC02021
:1011D000ADF8200048208DF8230003208DF8220070
:1011E00008A99F4800F0F2FC1E208DF804000120A1
:1011F0008DF805008DF806008DF8070001A800F0B5
:101200001CFC984801F0AAFD05A802F0A7F940F6D9
:101210005F10ADF818000020ADF81400ADF81A000A
:10122000ADF8160005A98F4801F06CFE00231A46A0
:1012300003218C4802F075FA02A802F0A2F90620F8
:10124000ADF8100002A9874802F0EFF801218548A7
:1012500002F07AFC01221146824802F0CAF901210B
:10126000804802F0ABF9002009B000BD00B589B09C
:101270000121022000F073FF0121042000F062FF31
:1012800008A800F02EFDC020ADF8200048208DF801
:10129000230003208DF8220008A9734800F096FC73
:1012A0001D208DF8040001208DF805008DF8060042
:1012B0008DF8070001A800F0C0FB6C4801F04EFD5E
:1012C00005A802F04BF940F65F10ADF818000020B9
:1012D000ADF81400ADF81A00ADF8160005A9634882
:1012E00001F010FE00231A460321604802F019FAAB
:1012F00002A802F046F90620ADF8100002A95B48EA
:1013000002F093F80121594802F01EFC0122114617
:10131000564802F06EF90121544802F04FF90020BE
:1013200009B000BD0EB50121084600F018FF4FF0CE
:10133000804001F013FD3220ADF8040048F69F40D4
:10134000ADF800000020ADF80600ADF802006946D7
:101350004FF0804001F0D6FD0121880702F0F4FB38
:1013600001221146900702F044F90121880702F09A
:1013700025F900200EBD00B589B00121084600F016
:10138000E1FE0121C80200F0DDFE0121042000F091
:10139000D9FE4FF41060ADF8200003208DF8220034
:1013A00018208DF8230008A92F4800F00FFC3048C2
:1013B00001F0D4FC0020ADF81400ADF816004FF495
:1013C000FA70ADF818000020ADF81A008DF81C0076
:1013D00005A9274801F096FD6020ADF80400012022
:1013E000ADF806007F20ADF80A000020ADF80C0033
:1013F00001A91F4801F0C3FD08211D4802F00EFAA3
:1014000001A91B4801F095FE0821194802F025FAB0
:101410000121174802F0D2F97F20154934310880A4
:101420001349403108800121114802F0C7F8012119
:101430000F4802F0CFF809B000BD10B5FFF79BFFD1
:10144000FFF770FFFFF712FFFFF7B4FEFFF78BFE09
:101450000A20FFF75CFE10BD000C004000100040A9
:10146000000C01400008004000080140000400405A
:10147000002C014070B5C948007888BBC848028874
:10148000C84803880020C64E3080C648008804B291
:10149000C4482438008800F0100010280ED1C2483B
:1014A0000068181AC2EB021606EB8606C0EB46115E
:1014B0004FF0FF30BD4E306049420BE0BA48006843
:1014C000181AC2EB021606EB860600EB4611012045
:1014D000B64E306011B90020B44E30600D4609E0C0
:1014E000FFE70020AD4E30700025AD4E3080AD4896
:1014F000008804B2AC48046028B270BD70B5AC4836
:10150000007888BBAB480288AB4804880020A94E0D
:101510003080A948008803B2A7482438008800F02A
:10152000100010280CD1A5480068201AC2EB021642
:1015300006EB8606C0EB46110120A14E30600DE09F
:101540009E480068201AC2EB021606EB860600EBE6
:1015500046114FF0FF309A4E3060494211B90020D9
:10156000974E30600D4609E0FFE70020904E307046
:101570000025904E30809048008803B28F48036069
:1015800028B270BD002007E000218E4A42F82010EA
:101590008D4A42F82010401C0328F5D301217F4AD0
:1015A0001170834A117070472DE9F05F00210C46DD
:1015B0000D460E460F468A460DE0824850F82A0036
:1015C000861947EBE077804850F82A100C1945EB54
:1015D000E1750AF1010ABAF1030FEED303220023E9
:1015E0002046294606F0C9FF04460D460322002383
:1015F0003046394606F0C1FF06460F46C8224FF076
:10160000000C2346A3FB023B05FB02B104FB0C10BC
:101610003C220021A3FB028B00FB02B003FB01096B
:101620004FF416620B464046494606F0A6FF0446B4
:10163000C82300213046A0FB03CB07FB03B206FB07
:1016400001203C22ACFB028B00FB02B00CFB010929
:101650004FF416620B464046494606F08EFF06469A
:1016600030B25A49086020B25949086057480068AA
:10167000584908605648006857490860BDE8F09F1F
:1016800070B55548006853490968401A53490860C5
:101690004E48006807F022FA05462946504803F0F4
:1016A0009BF904464F480168204606F0BEFF4D49AD
:1016B00008604D494B48006807F08CFA02D24A484E
:1016C0004849086000214748006807F079FA02D2CB
:1016D00000204449086043480068444908600846BF
:1016E000006807F02AFA4FF08041888770BD70B516
:1016F0003848006838490968401A38490860344851
:10170000006807F0EBF905462946394803F064F90B
:10171000044638480168204606F087FF35490860CE
:1017200031493448006807F055FA02D22E48314951
:10173000086000212F48006807F042FA02D200201A
:101740002C4908602B48006807F0F7F94FF08041FA
:10175000088770BD10B501211248243802F0F4F951
:101760000F4800884FF6FF71884204D00C4800886B
:10177000401C0B49088010BD10B501210E482438CB
:1017800002F0E2F90B4800884FF6FF71884204D05E
:1017900008480088401C0749088010BDA0000020B0
:1017A0009600002024080040F4000020EC000020F7
:1017B000A10000209400002024040040F800002034
:1017C000F0000020EC040020F80400208400002039
:1017D000880000208C000020900000209C00002049
:1017E000C8000020FC000020000061459800002097
:1017F000A40000200001002010B56FF0040000F0EC
:1018000066F92E4800682E49B0FBF1F02D490870AA
:101810000846007800EB4001C1EBC0104FF6FF71A5
:1018200001EAC0002849088010BD0146254A127807
:101830004A434FF0E0235A6100229A611A46126926
:1018400042F001021A6100BF4FF0E022106900F07F
:1018500001021AB100F48032002AF5D04FF0E022E4
:10186000126922F001024FF0E0231A6100229A610E
:1018700070470146144A12884A434FF0E0235A61E8
:1018800000229A611A46126942F001021A6100BFF1
:101890004FF0E022106900F001021AB100F480322A
:1018A000002AF5D04FF0E022126922F001024FF039
:1018B000E0231A6100229A6170470000280000208E
:1018C00000127A00040100200601002000BF7047CA
:1018D00000BF4A4A128802F04002002AF9D0C2B280
:1018E000464B1B1D1A80704710B586B00446012177
:1018F00044F2040000F026FC4FF40070ADF8140030
:1019000003208DF8160018208DF8170005A93C4813
:1019100000F05CF94FF48060ADF8140004208DF8FD
:10192000170005A9364800F051F925208DF8000070
:1019300003208DF801008DF8020001208DF80300CE
:10194000684600F07AF801940020ADF80800ADF880
:101950000A00ADF80C00ADF810000C20ADF80E0038
:1019600001A9264800F095FC012240F225512348A8
:1019700000F027FD0121214800F017FD06B010BD41
:1019800010B540F225511D4800F000FE10B31B4871
:1019900000F07CFDC4B21B48008800F40040C8B9C8
:1019A0001848008800F4804060B10A2C03D0002061
:1019B0001449088020E01348008840F40040114991
:1019C000088019E00D2C06D10E48008840F48040B4
:1019D0000C49088010E00B480088C0F30D000A494C
:1019E0000C5408480088401C0649088008460088B6
:1019F000C72801DD0020088010BD0000003801402C
:101A0000000801400C010020040500200648804722
:101A100006480047FEE7FEE7FEE7FEE7FEE7FEE7D3
:101A2000FEE7FEE7FEE7FEE7A3020008310100083B
:101A300031490143314A1160704770B500210023DC
:101A40000F22C47804B32D4C246804F4E064C4F578
:101A5000E064210AC1F10403CA40447804FA03F1A6
:101A60008478144021430901254C0678A155047857
:101A700004F01F050124AC4005786D11AD0005F19F
:101A8000E025C5F8004109E0047804F01F050124B1
:101A9000AC401C4D0678761145F8264070BD1A4AB8
:101AA0000A400243154B1B1F1A60704739B1134A95
:101AB000121D12680243114B1B1D1A6006E00F4AEB
:101AC000121D126882430D4B1B1D1A6070470428BB
:101AD00008D14FF0E021096941F004014FF0E02204
:101AE000116107E04FF0E021096921F004014FF096
:101AF000E0221161704700000000FA050CED00E0E3
:101B000000E400E080E100E080FFFF1F10B5044624
:101B1000CC48844208D10121042000F02DFB002193
:101B2000042000F029FB46E0C748844208D1012187
:101B3000082000F021FB0021082000F01DFB3AE006
:101B4000C248844208D10121102000F015FB002179
:101B5000102000F011FB2EE0BD48844208D1012185
:101B6000202000F009FB0021202000F005FB22E0EE
:101B7000B848844208D10121402000F0FDFA00213C
:101B8000402000F0F9FA16E0B348844208D1012160
:101B9000802000F0F1FA0021802000F0EDFA0AE048
:101BA000AE48844207D10121801500F0E5FA0021FA
:101BB000A01500F0E1FA10BD10B50121084600F0B3
:101BC000DBFA0021012000F0D7FA10BD2DE9F04129
:101BD000024600250026002000230024002791F85B
:101BE00003C00CF00F0591F803C00CF0100CBCF111
:101BF000000F03D091F802C04CEA050591F800C02F
:101C0000BCF1000F31D0146800202BE04FF0010C24
:101C10000CFA00F3B1F800C00CEA03069E4220D192
:101C200083004FF00F0C0CFA03F7BC4305FA03FCDA
:101C30004CEA040491F803C0BCF1280F06D14FF020
:101C4000010C0CFA00FCC2F814C00AE091F803C0C1
:101C5000BCF1480F05D14FF0010C0CFA00FCC2F8A2
:101C600010C0401C0828D1D31460B1F800C0BCF1EA
:101C7000FF0F34DD546800202EE000F1080C4FF017
:101C8000010808FA0CF3B1F800C00CEA03069E4202
:101C900021D183004FF00F0C0CFA03F7BC4305FA77
:101CA00003FC4CEA040491F803C0BCF1280F05D1F1
:101CB00000F1080C08FA0CF8C2F8148091F803C07F
:101CC000BCF1480F07D100F1080C4FF0010808FAE9
:101CD0000CF8C2F81080401C0828CED35460BDE830
:101CE000F0814FF6FF710180022181700421C170E3
:101CF00070470246002093680B400BB1012000E0C2
:101D0000002070470146886880B270470246002074
:101D1000D3680B400BB1012000E000207047014662
:101D2000C86880B2704701617047416170470AB16D
:101D3000016100E041617047C16070474FF480323B
:101D40000A438261816182618269826970470246C9
:101D50000020434B18684FF68073184040EA021089
:101D600008433F4B186070473E49C8617047F0B563
:101D70000A46002300240021002500F00046B6F1A9
:101D8000004F02D1364EF16901E0354E7168C0F363
:101D9000034583B200F44016B6F5401F08D121F088
:101DA00070612F4E766826F070662D4F7E6012E0CF
:101DB00000F48016B6F5801F06D1032606FA05F456
:101DC000A14341F0706106E0460D360103FA06F6C4
:101DD000B14341F0706122B1460D360103FA06F6B7
:101DE000314300F00046B6F1004F02D11C4EF161C4
:101DF00001E01B4E7160F0BD30B500228B071C0F57
:101E00000F2303FA04F2164B08338C1053F82430D6
:101E10009343134C08348D1044F8253023468C101E
:101E200053F824308C07240F00FA04F423430C4C9D
:101E300008348D1044F8253030BD0A49DC31086083
:101E40007047000000080140000C014000100140F4
:101E50000014014000180140001C01400020014016
:101E60000000014000002042DF48006840F001000F
:101E7000DD49086008464068DC490840DA494860A6
:101E800008460068DA490840D749086008460068F3
:101E900020F4802008600846406820F4FE00486076
:101EA0004FF41F0088607047CF49096821F48031E2
:101EB000CD4A11601146096821F480211160B0F506
:101EC000803F03D0B0F5802F0ED106E0C6490968E7
:101ED00041F48031C44A116007E0C349096841F404
:101EE000A021C14A116000E000BF00BF704710B5DB
:101EF00001460022002300204A11012A02D1BA4CD7
:101F0000236806E0022A02D1B74C236A01E0B64CEE
:101F1000636A01F01F02012494401C400CB10120AF
:101F200000E0002010BD38B50020009000240025FE
:101F300000BF3120FFF7DBFF05460098401C0090F2
:101F40000098B0F5A06F01D0002DF2D03120FFF73E
:101F5000CEFF08B1012400E00024204638BD014630
:101F60000020A14A106820F0F80040EAC10010608B
:101F70007047A04908607047024600209A4B586895
:101F800020F47C1042EA01031843974B58607047D5
:101F900098490866704701460020934A506820F02F
:101FA00003000843506070478F48406800F00C0001
:101FB0007047014600208C4A506820F0F00008432A
:101FC0005060704701460020874A506820F4E06066
:101FD00008435060704701460020834A506820F44F
:101FE000605040EAC1005060704729B17E4A527A81
:101FF00002437D4B5A7204E07B4A527A82437A4B09
:102000005A7270477B49D8310860704701460020FA
:10201000754A506820F440400843506070470021E2
:10202000714A20321170704A82F82010012802D0C3
:1020300004280AD104E001216B4A2032117005E026
:102040000521694A2032117000E000BF00BF7047CF
:102050006949086070476449096A0143624A11622C
:102060007047654944390860704730B50021002247
:10207000002400235C4D6D6805F00C0121B104299A
:1020800005D0082923D105E05C4D056022E05B4DB9
:1020900005601FE0544D6D6805F47012524D6D6877
:1020A00005F48034022505EB92421CB9544D55438A
:1020B00005600BE04C4D6D6805F400351DB1504DC9
:1020C0005543056002E04D4D5543056002E04B4D20
:1020D000056000BF00BF444D6D6805F0F0010909BF
:1020E000484D6B5C0568DD4045603F4D6D6805F40B
:1020F000E061090A434D6B5C4568DD4085603A4DFF
:102100006D6805F46051C90A3E4D6B5C4568DD4061
:10211000C560354D6D6805F44041890B3A4D6B5CE7
:10212000C568B5FBF3F5056130BD29B12E4A52698A
:1021300002432D4B5A6104E02B4A526982432A4BD9
:102140005A61704729B1284A92690243264B9A6125
:1021500004E0254A92698243234B9A61704729B172
:10216000214AD2690243204BDA6104E01E4AD26957
:1021700082431D4BDA61704729B11B4AD268024382
:10218000194BDA6004E0184AD2688243164BDA60D1
:10219000704729B1144A12690243134B1A6104E0D3
:1021A000114A12698243104B1A6170471249403933
:1021B000086070470F49C86470470B49C871704781
:1021C0000948406A40F080700749486270470146FC
:1021D0000020054A92680A400AB1012000E0002070
:1021E0007047014988727047001002400000FFF8F4
:1021F000FFFFF6FE000042428004424200127A00D5
:1022000000093D000E0100201E01002010B504460B
:10221000FB48844209D101218803FFF7ADFF00216B
:102220004FF48040FFF7A8FF32E0F648844209D11E
:1022300001214804FFF7ADFF00214FF40030FFF704
:10224000A8FF25E0F048844209D101218804FFF766
:10225000A0FF00214FF48020FFF79BFF18E0EB4820
:10226000844209D10121C804FFF793FF00214FF4F4
:102270000020FFF78EFF0BE0E548844208D10121E2
:102280000805FFF786FF00214FF48010FFF781FF5C
:1022900010BD2DE9F04786B005460E460024A24643
:1022A00000BFA1460027B08900B100BF2F462C8A8D
:1022B0004CF6FF700440F08804432C82AC894EF643
:1022C000F3100440B08831890843718908430443FE
:1022D000AC81AC8A4FF6FF400440B0890443AC8225
:1022E00001A8FFF7C2FEC648874202D1DDF810A060
:1022F00001E0DDF80CA0A88900F4004040B10AEB31
:10230000CA0000EB0A1031684900B0FBF1F807E0A1
:102310000AEBCA0000EB0A1031688900B0FBF1F843
:102320006420B8FBF0F004012009642101FB10894E
:10233000A88900F4004040B1322000EBC900B0FB96
:10234000F1F000F00700044308E0322000EB091030
:102350006421B0FBF1F000F00F0004432C8106B0C3
:10236000BDE8F0874FF41651016000218180C180E3
:1023700001810C21418100218181704710B5024605
:102380000020108A4FF2FF0318400B884C8823432B
:102390008C882343CC8823431843108210BD00212E
:1023A000018041808180C180704721B1828942F4DF
:1023B0000052828104E082894DF6FF731A408281C7
:1023C0007047F0B50346002400260025002040F6A3
:1023D0006A17B94200D100BF1846C1F3421401F098
:1023E0001F06012707FA06F5012C01D10C3004E085
:1023F000022C01D1103000E014301AB107682F43CD
:10240000076002E00768AF430760F0BD1AB1838A36
:102410000B43838202E0838A8B4383827047028A64
:102420004FF6F0731A400282028A0A430282704712
:1024300082894FF2FF731A40828182890A43828126
:10244000704721B1828942F00202828104E08289D0
:102450004FF6FD731A4082817047028A4FF6DF7390
:102460001A400282028A0A430282704721B1028A1C
:1024700042F48042028204E0028A4BF6FF731A4063
:1024800002827047C1F30802828070470146888843
:10249000C0F308007047818941F0010181817047D4
:1024A000028BD2B20283028B42EA0122028370477E
:1024B000028B02F47F420283028B0A43028370473D
:1024C00021B1828A42F02002828204E0828A4FF6A1
:1024D000DF731A408282704721B1828A42F0100273
:1024E000828204E0828A4FF6EF731A40828270473C
:1024F00021B1828A42F00802828204E0828A4FF689
:10250000F7731A408282704721B1828942F40042F7
:10251000828103E08289C2F30E028281704721B179
:10252000828A42F40062828204E0828A4FF2FF7360
:102530001A4082827047828A4FF6FB731A40828269
:10254000828A0A438282704721B1828A42F0020263
:10255000828204E0828A4FF6FD731A4082827047BD
:1025600002460020B1F5007F00D100BF13880B4068
:102570000BB1012000E00020704701F40072B2F5B9
:10258000007F00D100BFCA430280704770B5024689
:10259000002400230025002040F66A16B14200D135
:1025A00000BFC1F3421501F01F03012606FA03F331
:1025B000012D02D19689334006E0022D02D1168A00
:1025C000334001E0968A33400C12012606FA04F4E7
:1025D0001688344013B10CB1012000E0002070BD1A
:1025E00010B50022002340F66A14A14200D100BFBA
:1025F0000A1201249440A3B2DC43048010BD000001
:10260000003801400044004000480040004C0040B9
:102610000050004010B501214807FFF7BAFD002126
:102620004FF00050FFF7B5FD10BD30B5002200237C
:102630005A4C226840F6FE748440A243D1E900451A
:102640002C438D682C43CD6844EA050303FA00F45B
:102650002243524C226030BD002101604160816004
:10266000C160704739B14D4A1268012383401A4353
:102670004A4B1A6006E0494A1268012383409A4394
:10268000464B1A60704741B1444A12684FF4805378
:1026900083401A43414B1A6007E0404A12684FF4E6
:1026A000805383409A433D4B1A60704710B551B137
:1026B0003A4A121D126804090123A3401A43374BFA
:1026C0001B1D1A6009E0354A121D12680409012316
:1026D000A3409A43314B1B1D1A6010BD40B12F49D6
:1026E000091D096841F003012C4A121D116007E021
:1026F0002A49091D096821F00301284A121D1160A9
:10270000704710B53AB1254B1B6801FA00F423431A
:10271000224C236006E0214B1B6801FA00F4A3431E
:102720001E4C236010BD08B5002200921B4A009287
:1027300000F10802009B1A440092009A116008BD43
:1027400008B500220092154A009200F11402009B85
:102750001A440092009A116008BD30B5002400238D
:10276000082802D142EA012401E042EA01440B4B6D
:1027700000F120052B441C6030BD08B50146002047
:102780000090064800902C2000EB9100009A104425
:1027900000900098006880B208BD000000740040FE
:1027A00001460020FE4A106800F03800084310601F
:1027B0007047FB49096821F00801F94A1160114688
:1027C0000968014311607047F549096821F010015B
:1027D000F34A116011460968014311607047F148DE
:1027E000EF494860F04848607047EE48EC4948605F
:1027F000ED4848607047EA48006940F08000E849C9
:1028000008617047E648006940F08000E4490861CB
:1028100070470420E249C96801F0010109B10120B3
:102820000EE0DF49C96801F0040109B1022007E0A8
:10283000DB49C96801F0100109B1032000E0042060
:10284000704700B502460423FFF7E3FF034603E0A9
:10285000FFF7DFFF0346521E012B01D1002AF7D1FB
:1028600002B90523184600BD30B5044604254FF4CF
:102870003020FFF7E6FF0546042D17D1C848006950
:1028800040F00200C649086108464461006940F012
:10289000400008614FF43020FFF7D3FF0546C048E1
:1028A000006941F6FD710840BD490861284630BD08
:1028B00010B504244FF43020FFF7C3FF0446042C66
:1028C00016D1B748006940F00400B54908610846D0
:1028D000006940F0400008614FF43020FFF7B1FF7D
:1028E0000446AF48006941F6FB710840AC490861F5
:1028F000204610BD00B502460423FFF78AFF0346B9
:1029000003E0FFF786FF0346521E012B01D1002A88
:10291000F7D102B90523184600BD10B504244FF4C1
:102920003020FFF7E7FF0446042C16D19C480069CD
:1029300040F004009A4908610846006940F04000F0
:1029400008614FF43020FFF7D5FF04469448006932
:1029500041F6FB71084092490861204610BD0020F5
:102960008F49C96901F0020109B1012000E000208E
:10297000704730B5A5250424FFF7F1FF00B100250D
:102980004FF43020FFF75DFF0446042C3AD1854810
:1029900083498860844888600846006940F02000C8
:1029A00008610846006940F0400008614FF430209B
:1029B000FFF747FF0446042C1BD17948006941F614
:1029C000DF710840764908610846006940F0100050
:1029D000086176480580E002FFF733FF0446052CC6
:1029E00010D06F48006941F6EF7108406C490861EA
:1029F00008E0052C06D06A48006941F6EF710840EE
:102A000067490861204630BD78B506460C46042566
:102A100000200090E802FFF714FF0546042D24D1A2
:102A20005F48006940F001005D4908613480E802B8
:102A3000FFF707FF0546042D10D1B01C0090200CB5
:102A400000990880E802FFF7FCFE0546544800693B
:102A500041F6FE7108405249086106E0504800699D
:102A600041F6FE7108404E490861284678BD70B5B0
:102A700004460D460426F002FFF7E3FE0646042E48
:102A800011D14748006940F001004549086125809F
:102A9000F002FFF7D6FE06464148006941F6FE7196
:102AA00008403F490861304670BD70B505460E4686
:102AB0000424E002FFF7C5FE0446042C17D1394870
:102AC00037498860384888600846006940F010003F
:102AD00008612E80E002FFF7B4FE0446052C06D004
:102AE0002F48006941F6EF7108402D4908612046E2
:102AF00070BD2DE9F04304464FF6FF763746B046E9
:102B0000B1460425E443E6B2C4F30727C4F30748FB
:102B10004FEA1469E802FFF794FE0546042D49D1F7
:102B200020481F498860204888600846006940F0B6
:102B300010000861FF2E06D01C4808300680E8020D
:102B4000FFF77FFE0546042D08D1FF2F06D017485A
:102B50000A300780E802FFF774FE0546042D0AD10B
:102B6000B8F1FF0F07D011480C30A0F80080E80240
:102B7000FFF767FE0546042D0AD1B9F1FF0F07D014
:102B80000A480E30A0F80090E802FFF75AFE05460A
:102B9000052D0FD00248006941F6EF71084007E0AB
:102BA0000020024023016745AB89EFCD00F8FF1FED
:102BB000664908612846BDE8F08330B5054604241F
:102BC0004FF43020FFF73DFE0446042C41D160480D
:102BD0005E4988605F4888600846006940F02000D0
:102BE00008610846006940F0400008614FF4302059
:102BF000FFF727FE0446042C22D15448006941F611
:102C0000DF710840514908610846006940F0100032
:102C100008611DB100205049088002E0A5204E49FE
:102C200008804FF43020FFF70CFE0446052C10D02E
:102C30004648006941F6EF7108404449086108E0E0
:102C4000052C06D04148006941F6DF7108403F4934
:102C50000861204630BDF0B505460E4617460424EF
:102C60003B483A4988603B488860E002FFF7E9FD4D
:102C70000446042C19D13548006940F0100033494E
:102C8000086147F0F800304328433349891C088025
:102C9000E002FFF7D6FD0446052C06D02B4800695C
:102CA00041F6EF710840294908612046F0BD2748E8
:102CB000C069800870472548006A70470020234992
:102CC000096801F0200109B1012000E000207047EF
:102CD00029B11E4A126902431C4B1A6104E01B4AC7
:102CE00012698243194B1A6170470146002001297D
:102CF00008D1164AD26902F001020AB1012008E0A7
:102D0000002006E0114AD2680A400AB1012000E022
:102D1000002070470D49C860704704200B49C968FE
:102D200001F0010109B101200EE00849C96801F074
:102D3000040109B1022007E00449C96801F010014B
:102D400009B1032000E00420704700000020024089
:102D500023016745AB89EFCD00F8FF1F10B504468E
:102D6000FE48844208D10121C014FFF705FA002172
:102D7000E014FFF701FAC4E0B4F1804F08D101215B
:102D80000846FFF706FA00210120FFF702FAB8E033
:102D9000F348844208D101210220FFF7FAF900210B
:102DA0000220FFF7F6F9ACE0EE48844208D1012199
:102DB0000420FFF7EEF900210420FFF7EAF9A0E074
:102DC000E948844208D101210820FFF7E2F90021F7
:102DD0000820FFF7DEF994E0E448844208D101219D
:102DE0001020FFF7D6F900211020FFF7D2F988E074
:102DF000DF48844208D101212020FFF7CAF90021D1
:102E00002020FFF7C6F97CE0DA48844208D101218E
:102E10004014FFF7B1F900216014FFF7ADF970E03D
:102E2000D548844209D10121C804FFF7A5F9002142
:102E30004FF40020FFF7A0F963E0D048844209D1A5
:102E400001210805FFF798F900214FF48010FFF7E2
:102E500093F956E0CA48844209D101214805FFF799
:102E60008BF900214FF40010FFF786F949E0C548BF
:102E7000844208D101214020FFF78BF90021402036
:102E8000FFF787F93DE0C048844208D10121802046
:102E9000FFF77FF900218020FFF77BF931E0BB4885
:102EA000844208D101218015FFF773F90021A01594
:102EB000FFF76FF925E0B648844209D101210804E3
:102EC000FFF75AF900214FF48030FFF755F918E069
:102ED000B048844209D101214804FFF74DF900218F
:102EE0004FF40030FFF748F90BE0AB48844208D1BB
:102EF00001218804FFF740F900214FF48020FFF7FB
:102F00003BF910BD00220288944B98420ED0994B99
:102F100098420BD0B0F1804F08D0914B984205D029
:102F2000904B984202D0904B984204D14FF68F7349
:102F30001A404B881A438D4B984207D08C4B9842CD
:102F400004D04FF6FF431A40CB881A4302808B8887
:102F500083850B880385814B98420BD0854B984223
:102F600008D08B4B984205D08A4B984202D08A4BAE
:102F7000984201D10B7A038601238382704770B592
:102F8000002400220023058C4FF6FE763540058490
:102F9000028C8388048B4FF68F752C40B51E2C4015
:102FA0000D882C43751E2A400D892A434D882A43DB
:102FB0006A4DA8420BD06F4DA84208D0744DA8426C
:102FC00005D0744DA84202D0734DA84213D14FF6DC
:102FD000F7752A404D892A434FF6FB752A408D88A4
:102FE0002A434FF6FF652B404FF6FF552B408D8946
:102FF0002B43CD892B4383800483CD88858602842F
:1030000070BD70B5002400220023058C4FF6EF76CA
:1030100035400584028C8388048B48F6FF752C406C
:103020004FF6FF452C400D884FF6FF7606EA052542
:103030002C434FF6DF752A400D8906EA05152A4311
:103040004D8806EA05152A43444DA84202D0494D51
:10305000A8421DD14FF67F752A404D894FF6FF7665
:1030600006EA05152A434FF6BF752A408D8806EA01
:1030700005152A434FF6FF352B404FF2FF752B40C5
:103080008D8906EA85052B43CD8906EA85052B4304
:1030900083800483CD880587028470BD70B50024C9
:1030A00000220023058C4FF6FF6635400584028C14
:1030B0008388848B4FF68F752C404FF6FC752C401F
:1030C0000D882C434FF6FF552A400D894FF6FF76A9
:1030D00006EA05252A434D8806EA05252A431F4DA1
:1030E000A84202D0234DA8421DD14FF2FF752A40BD
:1030F0004D894FF6FF7606EA05252A434FF6FF3540
:103100002A408D8806EA05252A434EF6FF752B4096
:103110004DF6FF752B408D8906EA05152B43CD89A9
:1031200006EA05152B4383808483CD888587028436
:1031300070BD70B5002200230024058C4EF6FF768A
:1031400035400584038C8488828B48F6FF752A40BD
:103150004FF6FF452A400D8820E00000002C01407A
:103160000004004000080040000C00400010004037
:103170000014004000340140004C01400050014068
:103180000054014000180040001C00400020004096
:103190000040014000440140004801404FF6FF76E6
:1031A00006EA05252A434DF6FF752B400D8906EAF0
:1031B00005352B434D8806EA05352B43FA4DA842C9
:1031C00002D0FA4DA84208D14BF6FF752C408D89EC
:1031D0004FF6FF7606EA85152C4384808283CD88DE
:1031E000A0F84050038470BD828B4FF2FF331A4029
:1031F0008283828B4FF6FF7303EA01231A43828393
:103200007047F0B50C461546002200210026078CB9
:103210004EF6FF7C07EA0C070784828B018C4FF681
:10322000FF7707EA043640F6FF473A404FF6FF774C
:1032300007EA05273A434FF6FF7707EA03373A4391
:10324000D94FB8420ED0D94FB8420BD0B0F1804F11
:1032500008D0D74FB84205D0D64FB84202D0D64F8B
:10326000B84206D14DF6FF77394046F480573943CE
:1032700005E047F6FF57394044F4805739438283CD
:103280000184F0BD828B4FF6F3731A408283828BE8
:103290000A4382837047F0B50C4615460022002190
:1032A0000026078C4FF6FF6C07EA0C070784828B19
:1032B000018C4FF6FF7707EA04264FF60C773A4069
:1032C0004FF6FF7707EA03172F433A43B64FB8424A
:1032D0000ED0B64FB8420BD0B0F1804F08D0B44FEB
:1032E000B84205D0B34FB84202D0B34FB84206D16E
:1032F0004FF6FF57394046F48077394305E04FF2E7
:10330000FF57394044F48077394382830184F0BD0C
:10331000028B4FF2FF331A400283028B4FF6FF738A
:1033200003EA01231A4302837047F0B50C461546A1
:10333000002200210026078C4FF6EF7C07EA0C07DD
:103340000784028B018C4FF6FF7707EA041640F6DC
:10335000FF473A404FF6FF7707EA03373A434FF605
:10336000FF7707EA05273A438F4FB8420ED08F4FB9
:10337000B8420BD0B0F1804F08D08D4FB84205D085
:103380008C4FB84202D08C4FB84206D14FF6DF774F
:10339000394046F01007394305E04FF65F77394072
:1033A00044F01007394302830184F0BD028B4FF6CD
:1033B000F3731A400283028B0A4302837047F0B50D
:1033C0000C46154600220021068C4FF6FE773E4043
:1033D0000684028B018C4FF60C7632407E1C06EA86
:1033E00003162E433243704EB0420ED06F4EB042A1
:1033F0000BD0B0F1804F08D06D4EB04205D06D4E6D
:10340000B04202D06C4EB04206D14FF6FD7631404C
:1034100044F00106314305E04FF6F576314044F0C3
:103420000106314302830184F0BD70B505460C46A8
:103430005D4885420ED05D4885420BD0B5F1804F86
:1034400008D05B48854205D05A48854202D05A4888
:10345000854200D100E000BF208850B92389A288AE
:1034600061882846FFF7ABFFE1882846FFF79EFFFB
:1034700025E0208804280AD12389A288618828466B
:10348000FFF753FFE1882846FFF742FF17E0208847
:1034900008280AD12389A28861882846FFF7FBFE05
:1034A000E1882846FFF7EEFE09E02389A2886188BB
:1034B0002846FFF7A6FEE1882846FFF795FE70BD77
:1034C0002DE9F04105460C4600260127608808B921
:1034D000022600E00026A088012801D1022700E092
:1034E00001272088A0B92389A28861882846FFF790
:1034F00066FFE1882846FFF759FF23893A4631469F
:103500002846FFF712FFE1882846FFF701FF13E086
:103510002389A28861882846FFF707FFE1882846AB
:10352000FFF7F6FE23893A4631462846FFF747FF64
:10353000E1882846FFF73AFFBDE8F0810A884B880A
:103540001A438B881A43CB881A430B891A434B8939
:103550001A438B891A43A0F8442070474FF6FF7135
:10356000818000210180C18041800172704700216B
:10357000018041808180C180018141818181C1813F
:103580007047002101804180012181800021C1809C
:10359000018170470021018041808180C1800181CB
:1035A0004181818170470000002C014000340140BE
:1035B0000004004000080040000C004021B10288D7
:1035C00042F00102028004E002884FF6FE731A40C6
:1035D0000280704731B1B0F8442042F40042A0F8B4
:1035E000442005E0B0F84420C2F30E02A0F84420C5
:1035F00070471AB183890B43838102E083898B432F
:10360000838170478182704741EA0203A0F8483005
:1036100070471AB183890B43838102E083898B430E
:103620008381704701894FF6F8721140018170471C
:103630000A46002101894FF68F7319401143018119
:10364000704730B504460D4629462046FFF7F0FF87
:10365000208940F00700208130BD2DE9F04104466B
:103660000D4616461F46602D06D13B4601223146C7
:103670002046FFF75AFE05E03B4601223146204630
:10368000FFF79DFE29462046FFF7D2FF208940F034
:1036900007002081BDE8F08130B50C46002101898A
:1036A000C9B24FF6FF7505EA0325154325432943A3
:1036B000018130BD2DE9F04105460E46174698467A
:1036C000002443463A4631462846FFF7E5FF2C8959
:1036D0004FF6F870044044F007044FF68F70044032
:1036E00044F070042C81BDE8F081F0B504460D462D
:1036F00016461F463B46324629462046FFF7CCFF7A
:10370000208940F480402081F0BD0185828270478D
:103710000A46002101884FF68F731940114301803A
:103720007047F0B50C4615461E46002100220023C6
:103730000189028B038C4FF6F877394021434FF60D
:10374000FC473A4040F201173A434FF6DD773B40E1
:103750004FF6FF7707EA06172F433B4301810283A9
:103760000384F0BD0A460021018B4FF68F73194088
:103770001143018370470A460021018B48F6FF730D
:1037800019404FF6FF7303EA022319430183704780
:103790000A460021818B4FF68F73194011438183B4
:1037A00070470A460021818B48F6FF7319404FF697
:1037B000FF7303EA022319438183704721B1028812
:1037C00042F08002028004E002884FF67F731A40C4
:1037D0000280704721B1828842F00402828004E0B6
:1037E00082884FF6FB731A408280704721B182882D
:1037F00042F00802828004E082884FF6F7731A4094
:103800008280704721B1828842F00102828004E008
:1038100082884FF6FE731A40828070470A46002164
:10382000018B4FF6F77319401143018370470A4625
:103830000021018B4FF2FF7319404FF6FF7303EA2B
:1038400002231943018370470A460021818B4FF6FA
:10385000F77319401143818370470A460021818B19
:103860004FF2FF7319404FF6FF7303EA0223194327
:10387000818370470A460021018B4FF6FB73194084
:103880001143018370470A460021018B4FF6FF3335
:1038900019404FF6FF7303EA02231943018370476F
:1038A0000A460021818B4FF6FB7319401143818337
:1038B00070470A460021818B4FF6FF3319404FF6BF
:1038C000FF7303EA02231943818370470A460021EC
:1038D000018B4FF67F7319401143018370470A46ED
:1038E0000021018BC1F30E014FF6FF7303EA02239F
:1038F0001943018370470A460021818B4FF67F737D
:1039000019401143818370470A460021818BC1F31E
:103910000E014FF6FF7303EA0223194381837047B8
:103920000A460021018C4FF6FD73194011430184B2
:1039300070470A460021018C4FF6F7731940114376
:10394000018470470A460021018C4FF6DF7319404D
:103950004FF6FF7303EA02131943018470470A46C6
:103960000021018C4FF67F7319404FF6FF7303EA75
:1039700002131943018470470A460021018C4FF657
:10398000FF5319404FF6FF7303EA022319430184E2
:1039900070470A460021018C4FF2FF7319404FF621
:1039A000FF7303EA02231943018470470A4600218A
:1039B000018C4DF6FF7319404FF6FF7303EA023393
:1039C00019430184704730B5002301248C40A3B211
:1039D000048C9C430484048C02FA01F5ADB22C43A0
:1039E000048430BD30B5002304248C40A3B2048C81
:1039F0009C430484048C02FA01F5ADB22C43048488
:103A000030BD70B50346002000241846183001254B
:103A10008D40ACB21D8CA5431D8409B1082909D184
:103A200000EB6100056825F0700505600568154329
:103A300005600EE00D1FC5F34E052844056825F40A
:103A4000E045056005684FF6FF7606EA0226354335
:103A5000056070BD21B1028842F00202028004E0DC
:103A600002884FF6FD731A400280704721B1028828
:103A700042F00402028004E002884FF6FB731A4011
:103A80000280704721B1828842F08002828004E087
:103A900082884FF67F731A408280704702884FF603
:103AA000F7731A40028002880A43028070478288B6
:103AB0004FF68F731A40828082880A438280704753
:103AC00002894FF6F8731A40028102890A43028183
:103AD000704702894FF67F731A40028102890A43B8
:103AE0000281704781847047818570478186704765
:103AF0000187704781877047A0F84010704702889F
:103B00004FF6FF431A40028002880A430280704742
:103B10000146888E70470146088F70470146888F9E
:103B200070470146B1F8400070470146888C7047E5
:103B30000146088D704702460020138A0B400BB1E6
:103B4000012000E000207047CA430282704730B570
:103B50000246002000230024158A05EA0103958906
:103B600005EA010413B10CB1012000E0002030BDD2
:103B7000CA4302827047000010B5014600240022AB
:103B80000023481C18B10F3008B1887B08B94FF0EA
:103B9000FF34BCB9487B0344887B0344002203E024
:103BA000481C805C0344521C0C2AF9DB002204E010
:103BB00001F11000805C0344521C887B9042F7DCCA
:103BC00083F0FF03D8B210BD10B50024234800785D
:103BD00030B323480068234948600E200870002055
:103BE00048701E48007888701C4802781E491D489D
:103BF000083004F0EFFC30221A49222000F050F87F
:103C0000044617480068401C1549086008460068CB
:103C100010F5807F01D30020086000200F49087054
:103C2000204610BD70B5044600250C480178007888
:103C3000401C0A4A10700C4844541046007828B9B9
:103C40000A48D0E900100A4AC2E900100348007887
:103C5000282801D1FFF7B8FF284670BD28010020B1
:103C60002C010020F4070020CC0700209001002048
:103C700030010020002107E042F6E06100BF0A00A9
:103C8000A1F1010399B2FAD10200A0F1010398B2A7
:103C9000F2D170470020FA490860FA49086070477D
:103CA0002DE9F04104460F4615460026F548006808
:103CB000401C962190FBF1F201FB1200F0490968CB
:103CC000884200D1761E2EBBEE48006800EBC00093
:103CD000ED4901EBC0004473EA48006800EBC00006
:103CE00001EBC0008573E749096801EBC101E64AB1
:103CF00002EBC10101F110002A46394604F06AFCCA
:103D0000E0480068401C962190FBF1F201FB120094
:103D1000DC4908603046BDE8F0812DE9F0418CB007
:103D200005460E461746984600243021684604F0A2
:103D30006AFC06B10FB94FF0FF3424B93A46314658
:103D400002A804F047FC44B9CDF804808DF8005077
:103D5000302269460120FFF7A3FF20460CB0BDE8E2
:103D6000F08170B50446002504B96D1EA5B92E205A
:103D700020700020C4F80100C4F80500C4F8090050
:103D8000C24AC3A1601C05F0C5F8601C04F046FCE3
:103D90000B2801D36FF001051DB92046FFF7ECFE9B
:103DA000E073002D09DABB4804F038FC461C2B46B2
:103DB0003246B8492120FFF7B0FFA07B103070BD1C
:103DC0002DE9F04792B005460E4691469A46DDE948
:103DD0001A780024302106A804F015FC1821684642
:103DE00004F011FC74B9CDE900780296CDF80C907E
:103DF000CDF810A01822694608A804F0EBFB1820A3
:103E00008DF81A0044B9002007908DF81850302220
:103E100006A92846FFF744FF204612B0BDE8F08708
:103E20002DE9F04397B005460E469146DDE91E7830
:103E3000002430210AA804F0E6FB2821684604F09B
:103E4000E2FB64B9CDE900780296CDF818902822FB
:103E500069460CA804F0BEFB28208DF82A0044B95E
:103E600000200B908DF8285030220AA92846FFF731
:103E700017FF204617B0BDE8F0832DE9F0418CB064
:103E800006460F461446984600253021684604F041
:103E9000BAFB07B10CB94FF0FF3525B922463946B8
:103EA00002A804F097FB5DB9CDF804808DF800609E
:103EB000E0B28DF80200302269463046FFF7F0FE8E
:103EC00028460CB0BDE8F08170B505460024724963
:103ED0000968481CC11700EBD1514912A0EB4121E0
:103EE0006E4A1268914200D1641E74B96C486A49E6
:103EF0000968455468490968481CC11700EBD1514D
:103F00004912A0EB4121644A1160002C09DA65488E
:103F100004F084FB461C2346324662490E20FFF71C
:103F2000FCFE204670BD10B50146002001B9401EC0
:103F300038B95A4A1268584B1B689A4201D16FF03F
:103F4000010078B9564A554B1B68D25C0A70534B36
:103F50001B685A1CD31702EBD3535B12A2EB43230B
:103F60004E4C236010BD70B50546002405B9641E93
:103F70003CB94348006843490968884201D16FF061
:103F80000104A4B93E48006800EBC0003E4A02EBC1
:103F9000C0014822284604F01DFB39480068401C37
:103FA000962190FBF1F201FB120035490860204692
:103FB00070BD70B504460D462A462146812002F0A8
:103FC0005FFA002070BD38480068384908603648FC
:103FD000001D006848603448083000688860002090
:103FE0007047F0B58DB006460C4600272578302185
:103FF00001A804F008FB222D1BD1302E0BD1282262
:104000002B4903A804F0E6FA28208DF806000020CA
:104010008DF8050027E0312D25D1282203A9244859
:1040200004F0D8FA01208DF8060000208DF8050074
:1040300019E01F48405D80B1207A022803D1207A20
:104040001B49485505E0207A012802D1207A1849F9
:10405000485500208DF8050002E005208DF8050088
:1040600001208DF806006068029020788DF8040029
:10407000302201A93046FFF713FE38460DB0F0BDDF
:10408000480100204C0100203808002024080020AE
:1040900025730000259F00085801002054010020CE
:1040A000CC050020379F0008E8F7FF1F28330020C9
:1040B000683200202DE9F0438DB007468846002481
:1040C00000253E46302101A804F09DFA17B1B8F151
:1040D000000F01D14FF0FF34ECB9002506E0FC4998
:1040E00051F8250001A941F825006D1C042DF6DBCF
:1040F000F84801683160416871608068B0601022E2
:1041000001A906F10C0004F065FAF3490968F161B0
:104110002020C8F80000002C0ADAF04804F07EFAEB
:1041200000F1010923464A46EC492120FFF7F5FD3D
:1041300020460DB0BDE8F08370B506460C4600255C
:10414000E74960680844E74908604FF400620846A0
:104150000168E54804F03EFA284670BD2DE9F041BB
:1041600007460D4600260024FEF739FBDC4A696845
:104170008818FEF779FB00BF12E0DC48FEF761FB10
:10418000052802D03420FEF7C5FDD54B6A681A44D5
:1041900002EB8400D44A52F82410FEF735FC641C6C
:1041A000B4F5007FE9DBFEF726FB3046BDE8F08181
:1041B0002DE9F04180460D4600260027CC4C3022E8
:1041C0002946204604F006FAA088C0F30A07C94928
:1041D000E068096888420FD9C3493944C54BA268D1
:1041E0001B68C81804F1100104F0F4F9C149A06873
:1041F00009680844BF490860BE49E0680968884208
:1042000002D10020BB4908603046BDE8F0812DE9AD
:10421000F0438DB081460D4600270024A046302192
:1042200001A804F0F0F90026AF4EE86804901C21C4
:104230000498B0FBF1F800BF14E01C200390C4EB1D
:10424000C40006EB80011C2205A804F0C3F930224B
:1042500001A95320FFF724FDA74800681C30A64998
:104260000860641C4445E8DB1C210498B0FBF1F2B3
:1042700001FB1200C0B10498B0FBF1F201FB120087
:104280000390C4EBC40006EB800105A8039A04F078
:10429000A1F9302201A95320FFF702FD96490398A6
:1042A0000968084494490860934904980968884259
:1042B00002D100209049086038460DB0BDE8F08377
:1042C0002DE9F04105460E4600272C46142E11D14B
:1042D000227C2146894804F07DF9207C87490874B6
:1042E000607C4874A07C88748548D0E90010854AB9
:1042F000C2E900103846BDE8F0812DE9F0410646DC
:104300000C4600270025492E04D0502E0FD0512EE8
:104310001FD10FE0207818B901207B49086005E023
:104320002078012802D100207749086012E0FCF7CC
:10433000B3FC0FE02568002D0ADD282D08DC4FF4C2
:104340007A7090FBF5F0192190FBF1F06F4908604D
:1043500000E000BF00BF6E4804F060F900F1010802
:104360006A4842466A4903683046FFF7D6FC384639
:10437000BDE8F0812DE9F04106460C4600270025F6
:10438000632E04D0642E0FD0652E18D10DE0207856
:1043900018B901205F49086005E02078012802D1A2
:1043A00000205C4908600BE00AE02568002D05DD6F
:1043B000B5F57A7F02DCA8B2FCF7A9FE00E000BFE9
:1043C00000BF554804F02AF900F10108514842465F
:1043D000514903683046FFF7A0FC3846BDE8F0813C
:1043E00070B506460C460025207860B901214B487F
:1043F000FDF799FC4FF4C870FFF73CFC01214748DA
:10440000FDF793FC06E02078012803D10121434801
:10441000FDF78BFC284670BD70B506460C4600259E
:10442000207858B902213D48FDF77DFC6420FFF754
:1044300021FC02213948FDF778FC0DE020780128A5
:104440000AD104213548FDF76EFC6420FFF712FC09
:1044500004213248FDF769FC284670BD70B5064658
:104460000C460025207820B908212C48FDF75BFC7C
:1044700006E02078012803D108212848FDF755FCE3
:10448000284670BD7FB506460C46002500200090EA
:1044900001900290039010222146684604F09AF899
:1044A0001F48007804283DD14FF4FA610020FEF740
:1044B0003AF94FF4FA610020FEF742F90121002099
:1044C000FEF7F4F801211020FEF7F0F83CE00000C0
:1044D0000020030828330020903200204E9F00085F
:1044E00000C000086401002038330020A0860100CD
:1044F0009C3B00206001002078010020240800205F
:104500009001002040010020980100208C01002033
:10451000609F00089C010020779F00080008014070
:1045200050010020BDF808100020FEF7FCF8BDF88F
:104530000A100020FEF704F901210020FEF7B6F86A
:1045400001211020FEF7B2F8284604B070BD70B506
:1045500092B005460C4600263021684604F053F818
:10456000614903C9CDE90C01604A07CA0FAB07C313
:104570005F480068401C18B140208DF8380002E008
:1045800023208DF8380018220CA902A804F022F884
:104590006068019020788DF8000000208DF80100FF
:1045A00018208DF80200302269462846FFF778FB74
:1045B000304612B070BD70B50024402298214D489D
:1045C000006801F037FB4FF44051012001F0B5FBCA
:1045D00048480068FFF7D0FA46490968C97B884215
:1045E00076D144480068447B632C2ED00EDC562CD8
:1045F00057D006DC1C2C18D0352C1FD0552C65D17B
:1046000048E0572C54D0582C60D158E0682C2CD05E
:1046100006DC642C1AD0652C19D0672C56D11DE00D
:10462000692C29D0702C51D12DE032480068817B53
:10463000304800681030FFF743FE47E02D4801681E
:1046400010312046FFF783FF40E000BF00BF29483C
:10465000016810312046FFF78DFE37E025480168DC
:1046600010312046FFF7BCFE30E0224801681031CF
:104670002046FFF7D1FE29E01E4801681031204690
:10468000FFF7ECFE22E01B48016810312046FFF7DF
:10469000F9FE1BE01748016810312046FFF74CFD7A
:1046A00014E01448016810312046FFF757FD0DE073
:1046B0001048016810312046FFF77AFD06E00D48EA
:1046C000016810312046FFF7A2FD00BF0AE0FFE7B6
:1046D000094803F0A3FF451C23462A46064921202A
:1046E000FFF71BFB70BD00003801002028330020BD
:1046F000002003085C010020919F000870B505466A
:104700000C46A2B24FF48C71284601F079FA402190
:10471000022001F0D6FC022001F05AFB204670BDB9
:1047200002460023402900D94021002304E0044828
:10473000C05C1070521C5B1C8B42F8D3084670475B
:10474000E83B002010B58C48D0E900208B49D1E926
:104750000031D31A60EB010050229A1A70F1000068
:1047600007D28748407C012803D10320854908707F
:1047700008E08148D0E90010804AC2E90010042016
:10478000804908707F480078042811D14FF4FA61FD
:104790000020FDF7C8FF4FF4FA610020FDF7D0FFBD
:1047A00001210020FDF782FF01211020FDF77EFF8F
:1047B00010BD10B5282200236F4903C903F0ACFED9
:1047C00000214A404B401A4307D16E4800786C499B
:1047D000C87414221A20FFF763FA10BD10B566489A
:1047E000D0E90030684A06CA5B1A60EB02005A1E24
:1047F00070F1000009D36548807B012805D161482C
:104800000078032801D1FFF7DFF910BD10B560482B
:104810000268D317584903C903F07EFE00214A40BD
:104820004B401A4305D15B480068012801D1FCF7D1
:1048300033FA10BD10B501218807FFF788F990B150
:10484000FFF780FFFFF7B5FFFFF7E0FF4A48D0E929
:104850000020521C40F100004749C1E9002001211D
:104860008807FFF785F910BD2DE9FC4701214A486B
:10487000FFF76DF970B349480068012826D1484810
:104880000168484803F05BFF814647480168484695
:1048900003F023FF0646454903F01FFF054604F0D9
:1048A00033F904464248006804F02EF907464148AF
:1048B000006804F029F980462F4803C823463A4689
:1048C000CDE9000141466620FFF77AFA012132481E
:1048D000FFF74EF9BDE8FC8770B501213648FFF7B8
:1048E00036F9002847D03548008828B13348008879
:1048F000401E324908803AE0092030490880FCF720
:10490000B9FD0446FCF7FAFD0546284604F0DDF83B
:104910002B490860204604F0D8F82A490860284846
:1049200001682848006800F0C5F82748007840F082
:1049300002002549087025482549097840F821409A
:1049400024482349097840F8215021480078401C28
:104950001F49087008460078032801DB0020087012
:10496000FCF722FEFCF78CFEFCF7C1FE00BF012124
:104970001148FFF7FDF870BD9001002040010020B4
:10498000240800205001002030010020683200205F
:104990008C01002098010020000C00409C010020A8
:1049A000DC01002000003443B40100200000C842B4
:1049B000B0010020AC010020001000408001002068
:1049C000840100208801002008000020EC04002061
:1049D00082010020F80400202DE9F04704460F462C
:1049E000002004F072F880463946206A03F06FFE1A
:1049F0008246414603F019FEE060E168206803F05A
:104A00006CFE8146A06904F060F88246E16803F01C
:104A10000CFE804604F078F8A0612149E069086046
:104A200020491F48006804F0D5F805D31E491C48EA
:104A3000006804F0C5F801D200206060A06904F0AD
:104A400044F88046616803F048FE0546D4E9030156
:104A500003F03DFE8046A16803F03FFE0646E06895
:104A600020612946484603F0E0FD8046314603F0C8
:104A7000DCFDE0610D49E069096804F0ABF802D2A1
:104A80000A480068E0610A49E069096804F098F89A
:104A900002D207480068E061E069BDE8F0870000E5
:104AA000A80100200000A0400000A0C0A00100203C
:104AB000A40100202DE9F35F83480078E8B1834822
:104AC00001688348006803F008FE044681480168D5
:104AD0008148006803F001FE0546214603F02FFEE1
:104AE0007E4908607E4801687C48006803F027FE24
:104AF0007C490860002074490870DDE9000103F07A
:104B000094FD04464FF07C5103F0E7FD76490860C0
:104B1000DDE9000103F0DBFD7449086072480068BC
:104B20007349086071480068724908606D480168FF
:104B30007048006803F0D1FD6F49086008460068BE
:104B400004F00FF880464FF011326C4B03F0DCFE9E
:104B500004460D46684801686948006803F065FD31
:104B6000804603F0FEFF064622462B4603F025FE54
:104B7000824604F009F8624908605F4801684FF016
:104B80007C5003F0AAFD04465D480168204603F00E
:104B90004CFD5C4908600846006803F0E2FF0646E9
:104BA00005F040F9044603F0EFFF57490860554807
:104BB000006803F0D6FF064605F080F8044603F0CF
:104BC000E3FF52490860454801684948006803F01E
:104BD00084FD05464D480168284603F07EFD0446E5
:104BE0004B480168204603F020FD494908603B48D6
:104BF00001683F48006803F070FD054642480168BF
:104C0000284603F06AFD044642480168204603F046
:104C10000CFD404908600846006880F000442046CA
:104C200003F09FFF05463C4A3C4B03F06DFE0746F0
:104C300003F0AAFF3A4908603548006803F091FF85
:104C40000646354A354B03F05FFE044603F09CFFF1
:104C500034490860214801682548006803F03DFD9B
:104C6000044631480168204603F069FD2F49086079
:104C70002D4801682048006803F061FD2C49086058
:104C8000144801681E48006803F0A4FF08D22948B0
:104C900001681B48006803F01AFD1949086011E01B
:104CA0000C48006880F0004415480168204603F075
:104CB00091FF07D21F4801681148006803F0B5FC56
:104CC0000F490860BDE8FC9F20020020CC010020B5
:104CD000EC010020DC010020D401002004020020AF
:104CE000C8010020080200200C0200201002002051
:104CF000FC01002000020020F00100201111813F82
:104D0000B401002018020020F4010020F801002066
:104D1000C4010020C00100200AD7A3703D0AF33F60
:104D2000AC010020B0010020E8010020B801002003
:104D3000BC010020E401002010B504462CB901207C
:104D4000F64909680882002010BDF549096808681D
:104D50008047F24800680A30F6E710B5EF4800686F
:104D6000C078F0494978884213DCEC4800688078C4
:104D700078B9EA480068808858B9E8480068C0787F
:104D8000E64909688872E649096848688047002052
:104D900010BD0220FCE710B504462CB90120DF4904
:104DA00009680882002010BDDD49096888688047CD
:104DB000DA4800680C30F6E710B5D84B1B68D97894
:104DC000D64B1B685879D84B1B689A6990470446A4
:104DD000D2480068807AE8B13CB9D04800680079D0
:104DE00018B9CE480068807808B1022010BD8CB98F
:104DF000CB490968C8688047C84800684079C749F6
:104E00000968C872C5480068C078C4490968087351
:104E10000020EBE70220E9E710B504462CB9022098
:104E2000BE4909680882002010BD0020BF490880E3
:104E3000BA480068007800F07F0018BBB7490968DD
:104E4000487A00F0200131B1B849097841F00201F7
:104E5000B64A117005E0B549097801F0FD01B34A81
:104E6000117000F0400131B1B049097841F0010101
:104E7000AE4A117005E0AD49097801F0FE01AB4A78
:104E800011703AE0A5480068007800F07F00012822
:104E900001D1A648C8E7A1480068007800F07F006B
:104EA000022828D19D4A1268517901F00F0001F0C3
:104EB00080027AB19E4B03EB8002D2F8002C02F004
:104EC0003002102A16D1994A127842F00102974B0B
:104ED0001A700FE0964B03EB8002D2F8002C02F41C
:104EE0004052B2F5805F05D1904A127842F001023B
:104EF0008E4B1A7001E0002096E78949096808691D
:104F000080478A4890E72DE9F04784480068007898
:104F100000F07F08B8F1000F0AD180480068407A9D
:104F200000F0DF007D49096848720020BDE8F08785
:104F3000B8F1020F7ED179480068408818B97748E7
:104F40000068007908B10220F0E7DFF8D8917348D3
:104F50000068477927F080052C4670480068407942
:104F600000F0800038B1724901EB8400D0F8000CE9
:104F700000F0300606E06E4901EB8400D0F8000C2A
:104F800000F4405699F80000A84204D91EB16348C5
:104F90000068807A08B90220C8E707F0800080B175
:104FA000634901EB8400D0F8000C00F030001028B9
:104FB0004BD1E0B201F01DF8E0B2302100F09FFECD
:104FC00043E05B4901EB8400D0F8000C00F4405052
:104FD000B0F5805F39D1E4B9564A92F82C10E0B2AE
:104FE00001F091F8524A02EB8401D1F8001C4BF613
:104FF0008F7201EA020080F4805080F4005040F487
:10500000004141F080014A4B03EB8402C2F8001CCE
:105010001BE0E0B200F0D5FF454A02EB8401D1F875
:10502000001C4BF68F7201EA020080F4805080F47D
:10503000005000E00FE040F4004141F080013C4BA3
:1050400003EB8402C2F8001C00BF354909684869B7
:10505000804700206AE700BF022067E72DE9F041A2
:105060002E480068467926F080073C462B480068A9
:10507000407900F0800038B12D4901EB8400D0F870
:10508000000C00F0300506E0294901EB8400D0F85F
:10509000000C00F4405523480078A04208D91F486E
:1050A0000068408820B91DB11C480068807A10B99A
:1050B0000220BDE8F08106F08000A0B11C4A02EB9E
:1050C0008401D1F8001C48F6BF7201EA020080F0AA
:1050D000100040F4004141F08001154B03EB8402C5
:1050E000C2F8001C14E0124A02EB8401D1F8001C43
:1050F0004BF68F7201EA020080F4805040F40041C8
:1051000041F080010A4B03EB8402C2F8001C00BF8F
:1051100003490968886980470020CAE734020020F3
:1051200040020020A4020020380200202C020020AF
:1051300000500040A802002010B5F7480068407AEF
:1051400040F02000F44909684872F4490968C869C8
:105150008047002010BD10B50246EF480068438A22
:1051600032B98888C01AEC4C24682082002010BD17
:1051700008681844FBE72DE9F041E748006800F1B2
:1051800010042688A068C0B1BEB1A588B54200D978
:105190003546A8B2A168884707462088401B208072
:1051A000608828446080002000F07FFF8046AAB21B
:1051B0004146384600F03EFD00BF208850B14FF414
:1051C0004050D74908800021084600F07AFF30207F
:1051D000D44908802088A188884204DB0320CE4976
:1051E0000968087218E02088002804DD0520CA49F3
:1051F0000968087210E0208870B90620C64909685D
:1052000008720021C848006880B2801CC74A42F872
:1052100010103020C3490880BDE8F0812DE9F04727
:10522000BD48006800F110052E88BB480068077A69
:10523000D6B9042F18D1BE48007801280FD100211B
:10524000B948006880B2801CB84A42F8101030207B
:10525000B449088000BF0020B549087003E0072763
:105260001020B049088027E0AC88A64201D804206D
:1052700000E002200746B44200D93446A0B2A96833
:1052800088478046002000F005FF8146A2B24946CB
:10529000404600F0B5FCA1B2002000F012FF2888C3
:1052A000001B288068882044688030209D49088041
:1052B00000029B49088000BF974909680F72BDE84A
:1052C000F08770B5022694480068447892480068D8
:1052D000007800F07F00002844D1092C03D1FFF7AB
:1052E0003CFD06465FE0052C14D18B480068C07871
:1052F0007F280BDC88480068807838B986480068C9
:10530000808818B984480068807A08B1082565E06B
:10531000002648E0032C0ED17F480068C0780128A1
:1053200007D17D480068808818B9FFF705FF064659
:1053300039E0022637E0012C35D177480068C07883
:1053400001280DD174480068808848B97248006807
:10535000407A00F0200018B1FFF7D5FD064622E0A4
:10536000022620E06C480068007800F07F000128E9
:1053700005D10B2C17D1FFF71FFD064613E0664839
:105380000068007800F07F0002280BD1012C03D1C7
:10539000FFF7B9FD064606E0032C04D1FFF75EFED9
:1053A000064600E002264EB1E0B2624A1268516938
:1053B00088470646032E01D109250FE00EB10825C6
:1053C0000CE0062500215848006880B2801C574A2E
:1053D00042F8101030205349088000BF4E49096838
:1053E0000D7270BD2DE9F84F4B48006845780027D5
:1053F000BA46062D1BD148480068007800F07F00AF
:10540000002813D1444909688878012803D1494903
:105410000968CF690AE0022803D1464909680F6A82
:1054200004E0032802D1434909684F6AADE0002D2A
:1054300067D1394800684088002862D13648006842
:10544000C08802285DD1344800680079002858D10E
:1054500031480068007800F07F0030B92E480068BD
:10546000808810B9AFF24F678FE02B480068007852
:1054700000F07F00012811D12749096848792D499A
:1054800009688A690021904700287ED12248006877
:10549000807A002879D0AFF27F6776E01E480068F6
:1054A000007800F07F0002286FD11B480068407927
:1054B00000F00F0618480068407900F0700916489F
:1054C0000068407900F0800038B11B4901EB86008C
:1054D000D0F8000C00F0300806E0174901EB860018
:1054E000D0F8000C00F4405814480078B0424CD971
:1054F000B9F1000F49D1B8F1000F46D0AFF2E7671C
:1055000043E0082D1CD104480068007800F07F00BB
:10551000D8BBAFF2DB7738E0340200204002002035
:105520004402002046020020505C00400060004021
:105530002E0200203802002000500040A40200206B
:105540000A2D22D1C5480068007800F07F000128AC
:105550001BD1C2480068807AB8B1C0480068408852
:1055600098B9BE480068007978B9BC480068C0881E
:1055700001280AD1B94909684879B94909688A698D
:105580000021904708B9AFF2F17757B1B3480068EE
:10559000A0F812A0B148006887610020B847002435
:1055A0000FE0AE4A12685078AD4A12681169884718
:1055B0000446032C05D10920A84909680872BDE8F2
:1055C000F88FA6480068008A4FF6FF71884204D120
:1055D0000920A24909680872F1E7022C03D09F480C
:1055E0000068008A20B908209C4909680872E6E72B
:1055F0009A480068007800F08000E0B3974800689F
:10560000C088009095480068008A0099884204D9B3
:10561000924900980968088223E090480068008A4F
:105620008E490968C98888421BDA8C480068008A5C
:105630008B49096891F82C10884203DA00208949C7
:1056400008700EE085480068008A8549096891F86D
:105650002C1090FBF1F201FB120010B901208149DE
:1056600008707F48006890F82C107C4800688182A0
:10567000FFF7D4FD07E0FFE70320784909680872C7
:1056800000037949088000BF99E710B5774890F882
:105690002C10002000F037FD70480068007A0828C0
:1056A00005D14002704908801020714908806B487C
:1056B0000068007A092801D1012010BD0020FCE714
:1056C00038B501246B48006880B2001D6A4931F882
:1056D000100080B201EB4000009060480068007A42
:1056E000092832D0009800785C4909680870009851
:1056F000401C00900098007858490968487000984C
:10570000401C0090009800EB44000090009931F894
:10571000020B009100F0A0FE5049096848800098F3
:1057200000EB44000090009931F8020B009100F06A
:1057300093FE4A4909688880009800EB4400009075
:105740000098008845490968C880012043490968D4
:10575000087242480068C08810B9FFF7B2FD01E046
:10576000FFF740FEFFF791FF38BD30B50146434BD0
:105770001A78002014E00306414C04EB9353D3F84D
:10578000003C48F68F74234048F280042343C4B29F
:10579000234304063A4D05EB9454C4F8003C401CE6
:1057A0009042E8D341F08003324C241F236030BD87
:1057B00010B52A480068047A022C01D0042C05D1C7
:1057C000FFF72CFD25480068047A1CE0062C19D14F
:1057D00022480068407805280ED1204800680078EB
:1057E00000F07F0040B91D490968C878FFF7BDFF88
:1057F00024490968086A8047194909688868804708
:10580000082400E00824154909680C72FFF73DFFE1
:1058100010BD10B511480068047A022C01D0042C88
:1058200001D1082412E0032C01D0052C05D1FFF78B
:10583000A2FC0A480068047A08E0072C05D1084950
:105840000968C8688047082400E0082403490968FB
:105850000C72FFF71AFF10BD7047000034020020E1
:10586000380200202E02002044020020A80200205E
:1058700046020020505C004000600040A40200206E
:10588000005000404002002010B508480849086058
:105890000220096808720748074908600748084954
:1058A0000860054909680868804710BDCC3B0020A6
:1058B00034020020A802002038020020D802002074
:1058C0004002002008B50020009022E1C448008872
:1058D00000F00F00C34908700846007800287CD10A
:1058E000C1480068C14908800846008800F03000BF
:1058F000BF490880BD48008800F44050BB4908807B
:10590000B94909684BF6BF7201EA020080F4005001
:1059100080F0200040F4004141F08001B24A116063
:10592000AF48008800F0100090BB1046006848F6B1
:105930000F71084011460860FFF73AFFAA4909684D
:105940004BF6BF7201EA0200A849098801F48051B0
:1059500009B180F48050A549098801F4005109B1CA
:1059600080F40050A249098801F0100109B180F0CB
:1059700010009F49098801F0200109B180F0200042
:1059800081B241F4004141F08001974A116008BDA5
:10599000FFE79548006880B20090BDF8000000F471
:1059A0000060B0B390480068C0F30E0048F68F71F5
:1059B00008408D490860FFF783FE8B4909684BF664
:1059C000BF7201EA02008949098801F4805109B1D6
:1059D00080F480508549098800E056E001F40051C8
:1059E00009B180F400508249098801F0100109B121
:1059F00080F010007E49098801F0200109B180F093
:105A0000200081B241F4004141F08001764A1160EA
:105A1000BDE7FFE7BDF8000000F40040002878D0A3
:105A200071480068C0F30E0048F68F7108406E4957
:105A30000860FFF7EEFE6C4909684BF6BF7201EA99
:105A400002006A49098801F4805109B180F480504C
:105A50006649098801F4005109B180F40050644995
:105A6000098801F0100109B180F01000604909882F
:105A700001F0200109B180F0200081B241F4004121
:105A800041F08001584A116081E756480078594931
:105A900001EB8000D0F8000C80B20090BDF800004F
:105AA00000F40040C0B14F48007801EB8000D0F80E
:105AB000000CC0F30E0048F68F7108404949097880
:105AC0004C4A02EB8101C1F8000C46490978491E95
:105AD000494A52F821008047BDF8000000F08000DC
